:020000040000fa
:080000000001040000000000f3
:020000040000fa
:100200002fa0200000ff2000000188000000000057
:100210000c00070060d92000010020001f0007002b
:10022000000020000000e000020032000000020098
:100230000000000060050200000000000040da003d
:100240000000fe004440a900403b20000000e00008
:100250000300320000002000a00188004440a800f4
:1002600000000600f03fb1000180b100060035003b
:10027000ee03090000000000403fb1000180b10022
:10028000fbff3d001000b000203fb0000200350031
:1002900000800900000000000000060091018800b5
:1002a000800078000000eb0015003700e28040007d
:1002b00032a0b4009101ba00e280400032a0b40044
:1002c0009102ba00e280400032a0b4000002eb00cc
:1002d000472bde00f507b200602ce10004003a0075
:1002e0000059eb008301e900fdff3e0004003700e8
:1002f0006128e100010032000082eb0004000700e9
:100300001101ba000200e000e8ff3a000000060018
:100310003159ba008301e9000c0032002159ba00ba
:100320008301e900080032000400e00003003a0005
:10033000e280400032a0b400f5ff370011d9ba00c6
:100340008301e900faff3a008100e800e180400003
:0803500032a0b4000000060019
:020000040000fa
:0200000401f009
:04000000f6ff000007
:020000040000fa
:0200000401f009
:04000400ff7f00007a
:020000040000fa
:0200000401f009
:040008007fff000076
:020000040000fa
:0200000401f009
:04001400fdff0000ec
:020000040000fa
:10000800a00d0000a00d0000a00d0000a00d000034
:10001800a00d0000a00d0000a00d0000a00d000024
:10002800a00d0000a00d0000a00d0000a00d000014
:10003800a00d0000a00d0000a00d0000a00d000004
:10004800a00d0000a00d0000a00d0000a00d0000f4
:10005800a00d0000a00d0000a00d0000a00d0000e4
:10006800a00d0000a00d0000a00d0000a00d0000d4
:10007800a00d0000a00d0000a00d0000a00d0000c4
:10008800a00d0000a00d0000a00d0000a00d0000b4
:10009800a00d0000a00d0000a00d0000a00d0000a4
:1000a800a00d0000a00d0000a00d0000a00d000094
:1000b800a00d0000a00d0000a00d0000a00d000084
:1000c800a00d0000a00d0000a00d0000a00d000074
:1000d800a00d0000a00d0000a00d0000a00d000064
:1000e800a00d0000a00d0000a00d0000a00d000054
:0800f800a00d0000a00d0000a6
:020000040000fa
:10010800a00d0000a00d0000a00d0000a00d000033
:10011800a00d0000a00d0000a00d0000a00d000023
:10012800a00d0000a00d0000a00d0000a00d000013
:10013800a00d0000a00d0000a00d0000a00d000003
:10014800a00d0000a00d0000a00d0000a00d0000f3
:10015800a00d0000a00d0000a00d0000a00d0000e3
:10016800a00d0000a00d0000a00d0000a00d0000d3
:10017800a00d0000a00d0000a00d0000a00d0000c3
:10018800a00d0000a00d0000a00d0000a00d0000b3
:10019800a00d0000a00d0000a00d0000a00d0000a3
:1001a800a00d0000a00d0000a00d0000a00d000093
:1001b800a00d0000a00d0000a00d0000a00d000083
:1001c800a00d0000a00d0000a00d0000a00d000073
:1001d800a00d0000a00d0000a00d0000a00d000063
:1001e800a00d0000a00d0000a00d0000a00d000053
:0801f800a00d0000a00d0000a5
:020000040000fa
:1003580020200000202000002043000079740000c5
:10036800726f00006e0a0000202000005465000033
:10037800636800006e6f00006c6f00006769000022
:1003880065730000002000002020000020530000ba
:100398004b64000073340000304100000a20000064
:1003a800206400007350000049430000333000000f
:1003b800463400003031000031000000312d0000cb
:1003c8003e2000002b2c000020200000322d0000d1
:1003d8003e5400006573000074000000312e0000d8
:1003e800205400006573000074200000416c000078
:1003f8006c000000323a00002054000065730000d1
:10040800742000004c4500004473000000330000d5
:100418003a20000054650000737400002055000065
:100428004152000054310000003400003a2000001e
:10043800546500007374000020550000415200000c
:1004480054320000003500003a20000054650000d6
:100458007374000020550000415200005431000020
:100468004100000054650000737400002053000030
:10047800776900007463000068650000730000007d
:10048800507200006573000073200000535700008d
:10049800310000005357000032200000646500005e
:1004a8007465000063740000656400002c2000007f
:1004b80045720000726f00007221000000500000b9
:1004c800726500007373000020530000573200006b
:1004d80000530000573100002064000065740000dc
:1004e8006563000074650000642c0000204500006e
:1004f800727200006f720000210000005377000044
:1005080069740000636800006573000020500000f3
:10051800617300007321000000540000657300003f
:10052800742000004c45000044730000004c00009b
:1005380045440000312000004f4e0000004c0000f0
:1005480045440000312000004f46000046000000ee
:100558004c45000044320000204f00004e000000cf
:100568004c45000044320000204f00004646000081
:10057800004c00004544000031200000424c0000bf
:10058800494e00004b0000004c450000443200007a
:10059800204200004c4900004e4b0000004c000077
:1005a8004544000073200000506100007373000090
:1005b800210000005357000031200000746500003e
:1005c80073740000205500004152000054310000af
:1005d8000a4300006f6e00006e650000637400003f
:1005e8002055000043300000304100000054000056
:1005f80058200000536500006c650000637400001b
:100608006f7200003d540000583100000a5200008b
:1006180058200000536500006c65000063740000fa
:100628006f7200003d520000583100000048000081
:10063800797000006572000054650000726d00005a
:10064800696e0000616c00000a3900003630000055
:10065800302c0000203800002c2000004e2c000018
:100668002031000000500000726500007373000024
:10067800206500006e74000065720000206f0000a5
:100688006e0a00006b650000796200006f6100006f
:1006980072640000207400006f200000657800007c
:1006a80069740000000d00000a0a00005468000088
:1006b800616e00006b730000206600006f7200001e
:1006c80020750000736900006e6700002043000079
:1006d80079740000726f00006e20000054650000fd
:1006e800636800006e6f00006c6f000067690000af
:1006f8006573000020700000726f000064750000d0
:10070800637400000d0a0000000d00000a0a0000d2
:10071800446500006d6f0000205500004152000044
:1007280054310000206f00006e200000534b000081
:100738006473000034300000412e00002e2e0000ab
:100748000d0a00000050000072650000737300007d
:10075800206100006e790000206b000065790000c0
:10076800206f00006e2000006b65000079620000b9
:100778006f61000072640000207400006f200000a8
:10078800646500006d6f00002e0d00000a00000077
:100798004974000020770000696c00006c2000009c
:1007a8006265000020650000636800006f2000009b
:1007b80062610000636b0000207400006f2000007d
:1007c80048790000706500007254000065720000ee
:1007d8006d6900006e6100006c2e00000d0a0000bb
:1007e800005000007265000073730000206500006f
:1007f8006e74000065720000207400006f20000015
:1008080065780000697400002e0d00000a0a0000d7
:10081800000d00000a0a0000554100005254000073
:1008280031200000446500006d6f00002043000087
:100838006f6d0000706c0000657400006564000056
:100848002e0d00000a00000055410000525400001f
:100858003120000050610000737300002100000087
:1008680053570000312000007465000073740000c5
:100878002055000041520000543200000a43000095
:100888006f6e00006e650000637400002055000064
:1008980043300000304100000054000058200000a0
:1008a800536500006c650000637400006f720000ff
:1008b8003d540000583200000a5200005820000041
:1008c800536500006c650000637400006f720000df
:1008d8003d52000058320000000d00000a0a0000d6
:1008e800446500006d6f0000205500004152000073
:1008f80054320000206f00006e200000534b0000af
:100908006473000034300000412e00002e2e0000d9
:100918000d0a0000000d00000a0a00005541000001
:100928005254000032200000446500006d6f000042
:10093800204300006f6d0000706c000065740000bb
:10094800656400002e0d00000a00000055410000fb
:100958005254000032200000506100007373000000
:10096800210000005357000031200000746500008a
:1009780073740000205500004152000054310000fb
:10098800410a0000436f00006e6e000065630000be
:100998007420000055430000303000004100000082
:1009a8005458000020530000656c00006563000087
:1009b800746f0000723d000054580000314100007f
:1009c8000a52000058200000536500006c650000c2
:1009d800637400006f7200003d520000583100003f
:1009e800410000000d0a00000a440000656d000087
:1009f8006f200000554100005254000031200000d3
:100a0800416c000074650000726e000061740000a3
:100a180069760000652000006f6e0000205300001a
:100a28004b64000073340000304100002e2e00009b
:100a38002e0d00000a0000000d0a00000a550000f3
:100a48004152000054310000204100006c74000045
:100a5800657200006e610000746900007665000030
:100a680020440000656d00006f200000436f000007
:100a78006d7000006c65000074650000642e000055
:100a88000d0a0000005500004152000054310000da
:100a9800204100006c740000657200006e61000067
:100aa80074690000766500000a5000006173000058
:080ab8007321000000000000a2
:020000040000fa
:100ac0000400fa000040eb00004f78000000eb004b
:100ad000501688000000eb00801688000000eb0034
:100ae000b01688000000eb00e01688000000eb0064
:100af000101788000000eb00301688000000eb00a3
:100b0000601688000000eb0090168800d202a80052
:100b10000000eb00c0168800d902a8000000eb001e
:100b2000f016880020c0b3007a000700800c200077
:100b3000ec030700a0020700b0020700c01a28005b
:100b4000cf020700c05d2000e6030700ab020700ec
:100b5000701c2800ca020700c05d2000e1030700e6
:100b6000d642a900d662a900b100070010c0b300a8
:100b7000004f780000003700201e2800900007007a
:100b80001e80fb00100798001e009000e30f50002d
:100b90002c0032001e009000e30f500007003c00c4
:100ba0001e009000e10f50000b0032001e0090006c
:100bb000e20f500017003200450037001e00900081
:100bc000e40f50002b0032001e009000e50f500093
:100bd000340032003e003700201f28005c00070070
:100be000d4c2bf00614060000004e00038003a0059
:100bf000d4c2bf00614060000004e000fcff32008e
:100c0000c10007001c0107008b010700fa01070063
:100c10002f003700e01f28004d000700d4c2bf009e
:100c2000614060000004e00029003a00d4c2bf0027
:100c3000614060000004e000fcff3200b2000700e9
:100c400023003700b020280041000700d4c2bf00b5
:100c5000614060000004e0001d003a00d4c2bf0003
:100c6000614060000004e000fcff32000201070068
:100c7000170037009021280035000700d4c2bf00bc
:100c8000614060000004e00011003a00d4c2bf00df
:100c9000614060000004e000fcff320066010700d4
:100ca0000b0037007022280029000700d4c2bf00c3
:100cb000614060000004e00005003a00d4c2bf00bb
:100cc000614060000004e000fcff3200ca01070040
:100cd000dbc2bf00614060000004e000a6ff3a00f4
:100ce0001e4fe80050c0b3009e4f100002003600b7
:100cf00010c0b300004f7800dbc2bf00614060004d
:100d00000004e000fcff320010c0b3000100070047
:100d100099ff37000200fa00004f78000600370004
:100d2000e2c2a800200320006e030700e2c2a9006f
:100d3000200320006b0307001e4fe90000c0eb00fa
:100d40009e4f1000f6ff3a000080fa0000000600f7
:100d50000400fa00100798000040eb00004f7800f4
:100d60002c0207001e009000450207000400370017
:100d70001e4fe8001e0090000000e80010079800d9
:100d80001e009000104078000004e000f8ff3a00d8
:100d9000f0c0b3009e4f100007003e000300370074
:100da00000c2b3002f0207001e4fe800f0c0b300de
:100db0009e4f1000faff36000080fa000000060087
:100dc0000400fa00100798000040eb00004f780084
:100dd000160207001e0090002902070004003700d9
:100de0001e4fe8001e0090000000e8001007980069
:100df0001e009000104078000004e000f8ff3a0068
:100e0000f0c0b3009e4f100007003e000300370003
:100e100000c2b300130207001e4fe800f0c0b30089
:100e20009e4f1000faff36000080fa000000060016
:100e30000000fa00f10107006023280010020700fb
:100e4000803e20002703070040242800c0ff070041
:100e5000dbc2bf00614060000004e000fcff3a001c
:100e6000d4c2bf00614060000004e00004003a000a
:100e7000e2010700e024280001020700ffff37001d
:100e8000dbc2bf00614060000004e000fcff3200f4
:100e900010c0b3009fff0700d801070030262800cc
:100ea000f7010700d4c2bf00614060000004e00009
:100eb000fcff3a00dbc2bf00614060000004e000bc
:100ec00004003a00cd010700d0262800ec010700fd
:100ed000ffff3700d4c2bf00614060000004e000a3
:100ee000fcff320020c0b3008aff0700c3010700e7
:100ef00020282800e2010700401f2000f902070017
:100f00000080fa00000006000200fa000040eb003a
:100f1000004f7800b901070010292800d801070008
:100f2000803e2000ef020700b029280088ff07005c
:100f3000d642a800803e2000ea020700302a28009e
:100f400083ff0700d642a900803e2000e50207008b
:100f5000c02a28007eff0700d662a800803e20003d
:100f6000e0020700402b280079ff0700d662a900a5
:100f7000803e2000db020700d02b280074ff070012
:100f80000040eb00004f780011003700d6c2bf00d0
:100f90000080fb004200de006140600000c0ea000b
:100fa00061406000614060004201dd00612d200071
:100fb00091407800b0cfb30000c0600002407000e4
:100fc000d6e2b70060042000c60207001e4fe8000a
:100fd00030c1b3009e4f1000ecff3600d642a9008e
:100fe000401f2000bf020700802c280058ff070088
:100ff0000040eb00004f780011003700d6c2bf0060
:101000000080fb004300de006140600000c0ea0099
:1010100061406000614060004301dd00612d2000ff
:101020009140780070cfb30000c0600002407000b3
:10103000d6e2b70060042000aa0207001e4fe800b5
:1010400030c1b3009e4f1000ecff3600d662a900fd
:10105000401f2000a302070020c0b3002dff07009f
:10106000302d28003aff0700401f20009d02070096
:101070000080fa00000006000200fa000040eb00c9
:10108000004f7800300037005c010700e02d280099
:101090007b0107000040eb00004f7800070037009d
:1010a000dbc2bf00614060000004e00006003200c7
:1010b000e00120008b0207001e4fe80010c3b300c0
:1010c0009e4f1000f6ff36004c010700b02f28009d
:1010d0006b0107000040eb00004f7800070037006d
:1010e000dbc2bf00614060000004e0000600320087
:1010f000e00120007b0207001e4fe80010c3b30090
:101100009e4f1000f6ff36003c010700b03128006a
:101110005b0107000040eb00004f7800070037003c
:10112000dbc2bf00614060000004e0000600320046
:10113000e00120006b0207001e4fe80010c3b3005f
:101140009e4f1000f6ff3600dbc2bf00614060001a
:101150000004e000ccff3a00dbc2bf006140600049
:101160000004e000fcff3200df010700230107005c
:101170007033280042010700c0c0b3001702070007
:10118000703528003d020700903828003b02070018
:10119000703a280039020700c03c280037020700d7
:1011a000503f2800350207002002070000e8b70082
:1011b000d6c2bf000080fb004200de00614060003c
:1011c00000c0ea0061406000614060004201dd0053
:1011d000612d200091407800b0cfb30000c06000c6
:1011e00002407000d6e2b70000c8bf00fb01070054
:1011f00000c8bf00ed4f50000300320000c8bf0020
:10120000ea4f5000e8ff3a00d04028001b020700d8
:10121000d642a90020c0b300befe0700f7000700b9
:101220008042280016010700401f20002d02070001
:101230000080fa00000006000200fa000040eb0007
:10124000004f780030003700ec00070040432800d2
:101250000b0107000040eb00004f7800070037004b
:10126000dbc2bf00614060000004e0000600320005
:10127000e00120001b0207001e4fe80010c3b3006e
:101280009e4f1000f6ff3600dc00070010452800d6
:10129000fb0007000040eb00004f7800070037001c
:1012a000dbc2bf00614060000004e00006003200c5
:1012b000e00120000b0207001e4fe80010c3b3003e
:1012c0009e4f1000f6ff3600cc000700b03128001a
:1012d000eb0007000040eb00004f780007003700ec
:1012e000dbc2bf00614060000004e0000600320085
:1012f000e0012000fb0107001e4fe80010c3b3000f
:101300009e4f1000f6ff3600dbc2bf006140600058
:101310000004e000ccff3a00dbc2bf006140600087
:101320000004e000fcff320099010700b300070051
:1013300070332800d2000700c0c0b300b10107001d
:1013400070352800da01070010472800d80107008f
:10135000703a2800d6010700c03c2800d4010700dd
:10136000503f2800d2010700ba01070000e8b7008b
:10137000d6c2bf000080fb004300de006140600079
:1013800000c0ea0061406000614060004301dd0090
:10139000612d20009140780070cfb30000c0600044
:1013a00002407000d6e2b70000c8bf0095010700f8
:1013b00000c8bf00ed4f50000300320000c8bf005e
:1013c000ea4f5000e8ff3a00f0482800b801070053
:1013d000d662a90020c0b3004efe070087000700b8
:1013e000a04a2800a6000700401f2000bd010700fa
:1013f0000080fa00000006000200fa000040eb0046
:10140000004f7800300037007c000700604b280058
:101410009b0007000040eb00004f780007003700fa
:10142000dbc2bf00614060000004e0000600320043
:10143000e0012000ab0107001e4fe80010c3b3001d
:101440009e4f1000f6ff36006c000700404d28004c
:101450008b0007000040eb00004f780007003700ca
:10146000dbc2bf00614060000004e0000600320003
:10147000e00120009b0107001e4fe80010c3b300ed
:101480009e4f1000f6ff36005c000700b0312800c8
:101490007b0007000040eb00004f7800070037009a
:1014a000dbc2bf00614060000004e00006003200c3
:1014b000e00120008b0107001e4fe80010c3b300bd
:1014c0009e4f1000f6ff3600dbc2bf006140600097
:1014d0000004e000ccff3a00dbc2bf0061406000c6
:1014e0000004e000fcff3200140107004300070085
:1014f0007033280062000700c0c0b3003701070046
:10150000703528005d010700604f28005b0107006f
:10151000703a280059010700c03c28005701070015
:10152000503f2800550107004001070000e8b700c0
:10153000d6c2bf000080fb004200de0061406000b8
:1015400000c0ea0061406000614060004201dd00cf
:10155000612d200091407800b0cfb30000c0600042
:1015600002407000d6e2b70000c8bf001b010700b0
:1015700000c8bf00ed4f50000300320000c8bf009c
:10158000ea4f5000e8ff3a00005228003b010700f4
:10159000d642a90020c0b300defd070017000700f7
:1015a0007054280036000700401f20004d0107003e
:1015b0000080fa00000006000000fa0010c0b3002e
:1015c000a8000700f00020004601070081c3b30017
:1015d0000040eb008e00070061c0b3000040eb004c
:1015e0008b000700c1c0b3000040eb00880007007b
:1015f000020007000080fa00000006000000fa0068
:1016000011c0b3000040eb00810007000080fa0029
:10161000000006000000fa0021c0b3000040eb000b
:101620007b0007000080fa00000006000000fa00be
:1016300001ccb3000040eb00750007000080fa0009
:10164000000006000200fa00004f780000c8b30056
:101650009e4070000040eb006d0007000080fa0023
:10166000000006000200fa00004f78009e4078005b
:1016700010c0b300660007000080fa0000000600fa
:101680000200fa00000f78000e0037001e007800fc
:1016900010407800ea4f5000040032001e0078002d
:1016a00010407800ed4f500002003a00dfff0700c5
:1016b000030037001e00780010407800e9ff0700a3
:1016c0001e0fe8001e007800104078000004e000c3
:1016d000eeff3a000080fa00000006000e00fa005b
:1016e000204f9800610798000e0178006000b80054
:1016f0000089be00640141006000b8000089be009e
:10170000640141000000eb00000978006e009000c9
:1017100002712200110009000280d80040079800e1
:101720006e00900002712200110009000280d800b2
:101730008000fd00300798003e009000823e2000af
:10174000110009000280d8008000fd0020079800e9
:101750003e009000823e2000110009000280d80067
:10176000300798002e00900042062000110009006a
:101770000280d8008000fd00100798002e00900025
:1017800042062000110009000280d80020079800be
:101790001e009000a2002000110009000280d80065
:1017a0008000fd00000f78001e009000a2002000c5
:1017b000110009000280d800100798002e48900000
:1017c000e54f50000d00360050c0b300204f980088
:1017d0000a0037002e4890000080fb000000e9005e
:1017e0000000400060007f000043b0009dff070044
:1017f0002e4890000040e900204f98002e489000ad
:101800000004e000f3ff3a000080fa000000060048
:101810000200fa00004f7800114798001e4078003f
:101820001e0007001e4090002900070010c0b300f2
:101830000c00070010002000aa0007000040eb0089
:101840000800070020002000a60007000040eb0071
:10185000120007000040eb001d0007000080fa00a6
:10186000000006000200fa00004f78009e40780059
:1018700061c060006140600000414000012e200016
:1018800091407800d0cfb30000c0600002407000eb
:10189000e0e2b7000080fa00000006000200fa0053
:1018a000004f78009e40780061c060006141600098
:1018b000012e200091407800e0cfb30000c060000e
:1018c00002407000e0e2b7000080fa00000006006d
:1018d0000200fa00004f78001e80fb0040168800ce
:1018e0000080fa00000006000000fa001008200046
:1018f000a01088000d42a9000ec2bf00f043b20044
:101900000ee2b7008109200091407800f0c8b300d2
:1019100000c0600001c4b3000140700098e0b7004f
:101920000e22a9008520a9008d20a9000de2a800a3
:101930000f42a8000080fa00000006000000fa0034
:1019400010082000a01088000d42a8000ec2bf00a1
:10195000f043b2000ee2b700810920009140780008
:10196000f0c8b30000c0600001c4b30001407000c3
:1019700098e0b7000e22a9008520a9008d20a900bb
:101980000de2a8000f42a8000080fa000000060047
:101990000000fa0010082000f010880018c2bf00f4
:1019a000f043b20018e2b700010a2000914078002d
:1019b00080cfb30000c060005040b300a0e0b7008b
:1019c0001822a9008700a9008f00a90017e2a8002b
:1019d0001942a8000080fa00000006000200fa0088
:1019e000004f78000fc2bf00624060000004e000ba
:1019f000fcff3a001e80fb00801088000080fa0087
:101a0000000006000200fa00004f780019c2bf0073
:101a1000624060000004e000fcff3a001e80fb0012
:101a2000d01088000080fa00000006000000fa00d4
:101a30000ec2bf00614060000004e000fcff320005
:101a40000e22a900901080000080fb000080fa00a8
:101a5000000006000000fa0018c2bf0061406000ec
:101a60000004e000fcff32001822a900e010800012
:101a70000080fb000080fa00000006000200fa006f
:101a8000000f7800040037001e0078001040780036
:101a9000d2ff07001e0fe8001e00780010407800fb
:101aa0000004e000f8ff3a000080fa0000000600a1
:101ab0000200fa00000f7800040037001e007800d2
:101ac00010407800cfff07001e0fe8001e007800ce
:101ad000104078000004e000f8ff3a000080fa00af
:101ae000000006000200fa00000f78001e007800d7
:101af0006103b8008600780000e224000009b80005
:101b00006030b900030278000002420000e22400c5
:101b100000b8b90000024200840178000200be0053
:0c1b2000d0f907000080fa000000060069
:020000040000fa
:101b2c00000800000200000002000000000000009d
:041b3c0000000000a5
:020000040000fa
:041b40000000fe00a3
:00000001FF
